{
  "contractName": "ACNFTDegree",
  "abi": [
    {
      "inputs": [],
      "stateMutability": "nonpayable",
      "type": "constructor"
    },
    {
      "anonymous": false,
      "inputs": [
        {
          "indexed": true,
          "internalType": "address",
          "name": "owner",
          "type": "address"
        },
        {
          "indexed": true,
          "internalType": "address",
          "name": "approved",
          "type": "address"
        },
        {
          "indexed": true,
          "internalType": "uint256",
          "name": "tokenId",
          "type": "uint256"
        }
      ],
      "name": "Approval",
      "type": "event"
    },
    {
      "anonymous": false,
      "inputs": [
        {
          "indexed": true,
          "internalType": "address",
          "name": "owner",
          "type": "address"
        },
        {
          "indexed": true,
          "internalType": "address",
          "name": "operator",
          "type": "address"
        },
        {
          "indexed": false,
          "internalType": "bool",
          "name": "approved",
          "type": "bool"
        }
      ],
      "name": "ApprovalForAll",
      "type": "event"
    },
    {
      "anonymous": false,
      "inputs": [
        {
          "indexed": false,
          "internalType": "uint256",
          "name": "degreeId",
          "type": "uint256"
        },
        {
          "indexed": false,
          "internalType": "string",
          "name": "studentName",
          "type": "string"
        },
        {
          "indexed": false,
          "internalType": "string",
          "name": "schoolName",
          "type": "string"
        }
      ],
      "name": "DegreeMinted",
      "type": "event"
    },
    {
      "anonymous": false,
      "inputs": [
        {
          "indexed": true,
          "internalType": "address",
          "name": "from",
          "type": "address"
        },
        {
          "indexed": true,
          "internalType": "address",
          "name": "to",
          "type": "address"
        },
        {
          "indexed": true,
          "internalType": "uint256",
          "name": "tokenId",
          "type": "uint256"
        }
      ],
      "name": "Transfer",
      "type": "event"
    },
    {
      "inputs": [
        {
          "internalType": "address",
          "name": "to",
          "type": "address"
        },
        {
          "internalType": "uint256",
          "name": "tokenId",
          "type": "uint256"
        }
      ],
      "name": "approve",
      "outputs": [],
      "stateMutability": "nonpayable",
      "type": "function"
    },
    {
      "inputs": [
        {
          "internalType": "address",
          "name": "owner",
          "type": "address"
        }
      ],
      "name": "balanceOf",
      "outputs": [
        {
          "internalType": "uint256",
          "name": "",
          "type": "uint256"
        }
      ],
      "stateMutability": "view",
      "type": "function",
      "constant": true
    },
    {
      "inputs": [
        {
          "internalType": "uint256",
          "name": "",
          "type": "uint256"
        }
      ],
      "name": "degrees",
      "outputs": [
        {
          "internalType": "string",
          "name": "schoolName",
          "type": "string"
        },
        {
          "internalType": "string",
          "name": "schoolCode",
          "type": "string"
        },
        {
          "internalType": "string",
          "name": "studentName",
          "type": "string"
        },
        {
          "internalType": "string",
          "name": "studentID",
          "type": "string"
        },
        {
          "internalType": "string",
          "name": "otherInformation",
          "type": "string"
        }
      ],
      "stateMutability": "view",
      "type": "function",
      "constant": true
    },
    {
      "inputs": [
        {
          "internalType": "uint256",
          "name": "tokenId",
          "type": "uint256"
        }
      ],
      "name": "getApproved",
      "outputs": [
        {
          "internalType": "address",
          "name": "",
          "type": "address"
        }
      ],
      "stateMutability": "view",
      "type": "function",
      "constant": true
    },
    {
      "inputs": [
        {
          "internalType": "address",
          "name": "owner",
          "type": "address"
        },
        {
          "internalType": "address",
          "name": "operator",
          "type": "address"
        }
      ],
      "name": "isApprovedForAll",
      "outputs": [
        {
          "internalType": "bool",
          "name": "",
          "type": "bool"
        }
      ],
      "stateMutability": "view",
      "type": "function",
      "constant": true
    },
    {
      "inputs": [],
      "name": "name",
      "outputs": [
        {
          "internalType": "string",
          "name": "",
          "type": "string"
        }
      ],
      "stateMutability": "view",
      "type": "function",
      "constant": true
    },
    {
      "inputs": [
        {
          "internalType": "uint256",
          "name": "tokenId",
          "type": "uint256"
        }
      ],
      "name": "ownerOf",
      "outputs": [
        {
          "internalType": "address",
          "name": "",
          "type": "address"
        }
      ],
      "stateMutability": "view",
      "type": "function",
      "constant": true
    },
    {
      "inputs": [
        {
          "internalType": "address",
          "name": "from",
          "type": "address"
        },
        {
          "internalType": "address",
          "name": "to",
          "type": "address"
        },
        {
          "internalType": "uint256",
          "name": "tokenId",
          "type": "uint256"
        }
      ],
      "name": "safeTransferFrom",
      "outputs": [],
      "stateMutability": "nonpayable",
      "type": "function"
    },
    {
      "inputs": [
        {
          "internalType": "address",
          "name": "from",
          "type": "address"
        },
        {
          "internalType": "address",
          "name": "to",
          "type": "address"
        },
        {
          "internalType": "uint256",
          "name": "tokenId",
          "type": "uint256"
        },
        {
          "internalType": "bytes",
          "name": "data",
          "type": "bytes"
        }
      ],
      "name": "safeTransferFrom",
      "outputs": [],
      "stateMutability": "nonpayable",
      "type": "function"
    },
    {
      "inputs": [
        {
          "internalType": "address",
          "name": "operator",
          "type": "address"
        },
        {
          "internalType": "bool",
          "name": "approved",
          "type": "bool"
        }
      ],
      "name": "setApprovalForAll",
      "outputs": [],
      "stateMutability": "nonpayable",
      "type": "function"
    },
    {
      "inputs": [
        {
          "internalType": "bytes4",
          "name": "interfaceId",
          "type": "bytes4"
        }
      ],
      "name": "supportsInterface",
      "outputs": [
        {
          "internalType": "bool",
          "name": "",
          "type": "bool"
        }
      ],
      "stateMutability": "view",
      "type": "function",
      "constant": true
    },
    {
      "inputs": [],
      "name": "symbol",
      "outputs": [
        {
          "internalType": "string",
          "name": "",
          "type": "string"
        }
      ],
      "stateMutability": "view",
      "type": "function",
      "constant": true
    },
    {
      "inputs": [
        {
          "internalType": "uint256",
          "name": "index",
          "type": "uint256"
        }
      ],
      "name": "tokenByIndex",
      "outputs": [
        {
          "internalType": "uint256",
          "name": "",
          "type": "uint256"
        }
      ],
      "stateMutability": "view",
      "type": "function",
      "constant": true
    },
    {
      "inputs": [
        {
          "internalType": "address",
          "name": "owner",
          "type": "address"
        },
        {
          "internalType": "uint256",
          "name": "index",
          "type": "uint256"
        }
      ],
      "name": "tokenOfOwnerByIndex",
      "outputs": [
        {
          "internalType": "uint256",
          "name": "",
          "type": "uint256"
        }
      ],
      "stateMutability": "view",
      "type": "function",
      "constant": true
    },
    {
      "inputs": [
        {
          "internalType": "uint256",
          "name": "tokenId",
          "type": "uint256"
        }
      ],
      "name": "tokenURI",
      "outputs": [
        {
          "internalType": "string",
          "name": "",
          "type": "string"
        }
      ],
      "stateMutability": "view",
      "type": "function",
      "constant": true
    },
    {
      "inputs": [],
      "name": "totalSupply",
      "outputs": [
        {
          "internalType": "uint256",
          "name": "",
          "type": "uint256"
        }
      ],
      "stateMutability": "view",
      "type": "function",
      "constant": true
    },
    {
      "inputs": [
        {
          "internalType": "address",
          "name": "from",
          "type": "address"
        },
        {
          "internalType": "address",
          "name": "to",
          "type": "address"
        },
        {
          "internalType": "uint256",
          "name": "tokenId",
          "type": "uint256"
        }
      ],
      "name": "transferFrom",
      "outputs": [],
      "stateMutability": "nonpayable",
      "type": "function"
    },
    {
      "inputs": [
        {
          "internalType": "string",
          "name": "_schoolName",
          "type": "string"
        },
        {
          "internalType": "string",
          "name": "_schoolCode",
          "type": "string"
        },
        {
          "internalType": "string",
          "name": "_studentName",
          "type": "string"
        },
        {
          "internalType": "string",
          "name": "_studentID",
          "type": "string"
        },
        {
          "internalType": "uint256[]",
          "name": "_associatedGrades",
          "type": "uint256[]"
        },
        {
          "internalType": "string",
          "name": "_otherInformation",
          "type": "string"
        }
      ],
      "name": "mintDegree",
      "outputs": [
        {
          "internalType": "uint256",
          "name": "",
          "type": "uint256"
        }
      ],
      "stateMutability": "nonpayable",
      "type": "function"
    }
  ],
  "bytecode": "0x60806040523480156200001157600080fd5b506040518060400160405280601f81526020017f41636164656d6963204365727469666963617465204e465420446567726565008152506040518060400160405280600b81526020017f41434e4654446567726565000000000000000000000000000000000000000000815250816000908051906020019062000096929190620000b8565b508060019080519060200190620000af929190620000b8565b505050620001cc565b828054620000c69062000197565b90600052602060002090601f016020900481019282620000ea576000855562000136565b82601f106200010557805160ff191683800117855562000136565b8280016001018555821562000136579182015b828111156200013557825182559160200191906001019062000118565b5b50905062000145919062000149565b5090565b5b80821115620001645760008160009055506001016200014a565b5090565b7f4e487b7100000000000000000000000000000000000000000000000000000000600052602260045260246000fd5b60006002820490506001821680620001b057607f821691505b602082108103620001c657620001c562000168565b5b50919050565b6136e080620001dc6000396000f3fe608060405234801561001057600080fd5b50600436106101155760003560e01c80634f6ccce7116100a257806395d89b411161007157806395d89b411461032e578063a22cb4651461034c578063b88d4fde14610368578063c87b56dd14610384578063e985e9c5146103b457610115565b80634f6ccce71461026a5780636352211e1461029a57806370a08231146102ca57806381f1c3bc146102fa57610115565b8063095ea7b3116100e9578063095ea7b3146101c857806318160ddd146101e457806323b872dd146102025780632f745c591461021e57806342842e0e1461024e57610115565b8062b0c6241461011a57806301ffc9a71461014a57806306fdde031461017a578063081812fc14610198575b600080fd5b610134600480360381019061012f91906125ef565b6103e4565b6040516101419190612733565b60405180910390f35b610164600480360381019061015f91906127a6565b610542565b60405161017191906127ee565b60405180910390f35b6101826105bc565b60405161018f9190612891565b60405180910390f35b6101b260048036038101906101ad91906128b3565b61064e565b6040516101bf9190612921565b60405180910390f35b6101e260048036038101906101dd9190612968565b610694565b005b6101ec6107ab565b6040516101f99190612733565b60405180910390f35b61021c600480360381019061021791906129a8565b6107b8565b005b61023860048036038101906102339190612968565b610818565b6040516102459190612733565b60405180910390f35b610268600480360381019061026391906129a8565b6108bd565b005b610284600480360381019061027f91906128b3565b6108dd565b6040516102919190612733565b60405180910390f35b6102b460048036038101906102af91906128b3565b61094e565b6040516102c19190612921565b60405180910390f35b6102e460048036038101906102df91906129fb565b6109d4565b6040516102f19190612733565b60405180910390f35b610314600480360381019061030f91906128b3565b610a8b565b604051610325959493929190612a28565b60405180910390f35b610336610d69565b6040516103439190612891565b60405180910390f35b61036660048036038101906103619190612aca565b610dfb565b005b610382600480360381019061037d9190612bab565b610e11565b005b61039e600480360381019061039991906128b3565b610e73565b6040516103ab9190612891565b60405180910390f35b6103ce60048036038101906103c99190612c2e565b610edb565b6040516103db91906127ee565b60405180910390f35b60006103f0600a610f6f565b60006103fc600a610f85565b90506104083382610f93565b6040518060c0016040528089815260200188815260200187815260200186815260200185815260200184815250600b600083815260200190815260200160002060008201518160000190805190602001906104649291906122a7565b5060208201518160010190805190602001906104819291906122a7565b50604082015181600201908051906020019061049e9291906122a7565b5060608201518160030190805190602001906104bb9291906122a7565b5060808201518160040190805190602001906104d892919061232d565b5060a08201518160050190805190602001906104f59291906122a7565b509050507ff191b2cde27d8a9e9a33bb1a329adae7c9f98971b5add3c33757c535a20d4a1a81878a60405161052c93929190612c6e565b60405180910390a1809150509695505050505050565b60007f780e9d63000000000000000000000000000000000000000000000000000000007bffffffffffffffffffffffffffffffffffffffffffffffffffffffff1916827bffffffffffffffffffffffffffffffffffffffffffffffffffffffff191614806105b557506105b482610fb1565b5b9050919050565b6060600080546105cb90612ce2565b80601f01602080910402602001604051908101604052809291908181526020018280546105f790612ce2565b80156106445780601f1061061957610100808354040283529160200191610644565b820191906000526020600020905b81548152906001019060200180831161062757829003601f168201915b5050505050905090565b600061065982611093565b6004600083815260200190815260200160002060009054906101000a900473ffffffffffffffffffffffffffffffffffffffff169050919050565b600061069f8261094e565b90508073ffffffffffffffffffffffffffffffffffffffff168373ffffffffffffffffffffffffffffffffffffffff160361070f576040517f08c379a000000000000000000000000000000000000000000000000000000000815260040161070690612d85565b60405180910390fd5b8073ffffffffffffffffffffffffffffffffffffffff1661072e6110de565b73ffffffffffffffffffffffffffffffffffffffff16148061075d575061075c816107576110de565b610edb565b5b61079c576040517f08c379a000000000000000000000000000000000000000000000000000000000815260040161079390612e17565b60405180910390fd5b6107a683836110e6565b505050565b6000600880549050905090565b6107c96107c36110de565b8261119f565b610808576040517f08c379a00000000000000000000000000000000000000000000000000000000081526004016107ff90612ea9565b60405180910390fd5b610813838383611234565b505050565b6000610823836109d4565b8210610864576040517f08c379a000000000000000000000000000000000000000000000000000000000815260040161085b90612f3b565b60405180910390fd5b600660008473ffffffffffffffffffffffffffffffffffffffff1673ffffffffffffffffffffffffffffffffffffffff168152602001908152602001600020600083815260200190815260200160002054905092915050565b6108d883838360405180602001604052806000815250610e11565b505050565b60006108e76107ab565b8210610928576040517f08c379a000000000000000000000000000000000000000000000000000000000815260040161091f90612fcd565b60405180910390fd5b6008828154811061093c5761093b612fed565b5b90600052602060002001549050919050565b60008061095a8361152d565b9050600073ffffffffffffffffffffffffffffffffffffffff168173ffffffffffffffffffffffffffffffffffffffff16036109cb576040517f08c379a00000000000000000000000000000000000000000000000000000000081526004016109c290613068565b60405180910390fd5b80915050919050565b60008073ffffffffffffffffffffffffffffffffffffffff168273ffffffffffffffffffffffffffffffffffffffff1603610a44576040517f08c379a0000000000000000000000000000000000000000000000000000000008152600401610a3b906130fa565b60405180910390fd5b600360008373ffffffffffffffffffffffffffffffffffffffff1673ffffffffffffffffffffffffffffffffffffffff168152602001908152602001600020549050919050565b600b602052806000526040600020600091509050806000018054610aae90612ce2565b80601f0160208091040260200160405190810160405280929190818152602001828054610ada90612ce2565b8015610b275780601f10610afc57610100808354040283529160200191610b27565b820191906000526020600020905b815481529060010190602001808311610b0a57829003601f168201915b505050505090806001018054610b3c90612ce2565b80601f0160208091040260200160405190810160405280929190818152602001828054610b6890612ce2565b8015610bb55780601f10610b8a57610100808354040283529160200191610bb5565b820191906000526020600020905b815481529060010190602001808311610b9857829003601f168201915b505050505090806002018054610bca90612ce2565b80601f0160208091040260200160405190810160405280929190818152602001828054610bf690612ce2565b8015610c435780601f10610c1857610100808354040283529160200191610c43565b820191906000526020600020905b815481529060010190602001808311610c2657829003601f168201915b505050505090806003018054610c5890612ce2565b80601f0160208091040260200160405190810160405280929190818152602001828054610c8490612ce2565b8015610cd15780601f10610ca657610100808354040283529160200191610cd1565b820191906000526020600020905b815481529060010190602001808311610cb457829003601f168201915b505050505090806005018054610ce690612ce2565b80601f0160208091040260200160405190810160405280929190818152602001828054610d1290612ce2565b8015610d5f5780601f10610d3457610100808354040283529160200191610d5f565b820191906000526020600020905b815481529060010190602001808311610d4257829003601f168201915b5050505050905085565b606060018054610d7890612ce2565b80601f0160208091040260200160405190810160405280929190818152602001828054610da490612ce2565b8015610df15780601f10610dc657610100808354040283529160200191610df1565b820191906000526020600020905b815481529060010190602001808311610dd457829003601f168201915b5050505050905090565b610e0d610e066110de565b838361156a565b5050565b610e22610e1c6110de565b8361119f565b610e61576040517f08c379a0000000000000000000000000000000000000000000000000000000008152600401610e5890612ea9565b60405180910390fd5b610e6d848484846116d6565b50505050565b6060610e7e82611093565b6000610e88611732565b90506000815111610ea85760405180602001604052806000815250610ed3565b80610eb284611749565b604051602001610ec3929190613156565b6040516020818303038152906040525b915050919050565b6000600560008473ffffffffffffffffffffffffffffffffffffffff1673ffffffffffffffffffffffffffffffffffffffff16815260200190815260200160002060008373ffffffffffffffffffffffffffffffffffffffff1673ffffffffffffffffffffffffffffffffffffffff16815260200190815260200160002060009054906101000a900460ff16905092915050565b6001816000016000828254019250508190555050565b600081600001549050919050565b610fad828260405180602001604052806000815250611817565b5050565b60007f80ac58cd000000000000000000000000000000000000000000000000000000007bffffffffffffffffffffffffffffffffffffffffffffffffffffffff1916827bffffffffffffffffffffffffffffffffffffffffffffffffffffffff1916148061107c57507f5b5e139f000000000000000000000000000000000000000000000000000000007bffffffffffffffffffffffffffffffffffffffffffffffffffffffff1916827bffffffffffffffffffffffffffffffffffffffffffffffffffffffff1916145b8061108c575061108b82611872565b5b9050919050565b61109c816118dc565b6110db576040517f08c379a00000000000000000000000000000000000000000000000000000000081526004016110d290613068565b60405180910390fd5b50565b600033905090565b816004600083815260200190815260200160002060006101000a81548173ffffffffffffffffffffffffffffffffffffffff021916908373ffffffffffffffffffffffffffffffffffffffff160217905550808273ffffffffffffffffffffffffffffffffffffffff166111598361094e565b73ffffffffffffffffffffffffffffffffffffffff167f8c5be1e5ebec7d5bd14f71427d1e84f3dd0314c0f7b2291e5b200ac8c7c3b92560405160405180910390a45050565b6000806111ab8361094e565b90508073ffffffffffffffffffffffffffffffffffffffff168473ffffffffffffffffffffffffffffffffffffffff1614806111ed57506111ec8185610edb565b5b8061122b57508373ffffffffffffffffffffffffffffffffffffffff166112138461064e565b73ffffffffffffffffffffffffffffffffffffffff16145b91505092915050565b8273ffffffffffffffffffffffffffffffffffffffff166112548261094e565b73ffffffffffffffffffffffffffffffffffffffff16146112aa576040517f08c379a00000000000000000000000000000000000000000000000000000000081526004016112a1906131ec565b60405180910390fd5b600073ffffffffffffffffffffffffffffffffffffffff168273ffffffffffffffffffffffffffffffffffffffff1603611319576040517f08c379a00000000000000000000000000000000000000000000000000000000081526004016113109061327e565b60405180910390fd5b611326838383600161191d565b8273ffffffffffffffffffffffffffffffffffffffff166113468261094e565b73ffffffffffffffffffffffffffffffffffffffff161461139c576040517f08c379a0000000000000000000000000000000000000000000000000000000008152600401611393906131ec565b60405180910390fd5b6004600082815260200190815260200160002060006101000a81549073ffffffffffffffffffffffffffffffffffffffff02191690556001600360008573ffffffffffffffffffffffffffffffffffffffff1673ffffffffffffffffffffffffffffffffffffffff168152602001908152602001600020600082825403925050819055506001600360008473ffffffffffffffffffffffffffffffffffffffff1673ffffffffffffffffffffffffffffffffffffffff16815260200190815260200160002060008282540192505081905550816002600083815260200190815260200160002060006101000a81548173ffffffffffffffffffffffffffffffffffffffff021916908373ffffffffffffffffffffffffffffffffffffffff160217905550808273ffffffffffffffffffffffffffffffffffffffff168473ffffffffffffffffffffffffffffffffffffffff167fddf252ad1be2c89b69c2b068fc378daa952ba7f163c4a11628f55a4df523b3ef60405160405180910390a46115288383836001611a7b565b505050565b60006002600083815260200190815260200160002060009054906101000a900473ffffffffffffffffffffffffffffffffffffffff169050919050565b8173ffffffffffffffffffffffffffffffffffffffff168373ffffffffffffffffffffffffffffffffffffffff16036115d8576040517f08c379a00000000000000000000000000000000000000000000000000000000081526004016115cf906132ea565b60405180910390fd5b80600560008573ffffffffffffffffffffffffffffffffffffffff1673ffffffffffffffffffffffffffffffffffffffff16815260200190815260200160002060008473ffffffffffffffffffffffffffffffffffffffff1673ffffffffffffffffffffffffffffffffffffffff16815260200190815260200160002060006101000a81548160ff0219169083151502179055508173ffffffffffffffffffffffffffffffffffffffff168373ffffffffffffffffffffffffffffffffffffffff167f17307eab39ab6107e8899845ad3d59bd9653f200f220920489ca2b5937696c31836040516116c991906127ee565b60405180910390a3505050565b6116e1848484611234565b6116ed84848484611a81565b61172c576040517f08c379a00000000000000000000000000000000000000000000000000000000081526004016117239061337c565b60405180910390fd5b50505050565b606060405180602001604052806000815250905090565b60606000600161175884611c08565b01905060008167ffffffffffffffff811115611777576117766123c6565b5b6040519080825280601f01601f1916602001820160405280156117a95781602001600182028036833780820191505090505b509050600082602001820190505b60011561180c578080600190039150507f3031323334353637383961626364656600000000000000000000000000000000600a86061a8153600a8581611800576117ff61339c565b5b049450600085036117b7575b819350505050919050565b6118218383611d5b565b61182e6000848484611a81565b61186d576040517f08c379a00000000000000000000000000000000000000000000000000000000081526004016118649061337c565b60405180910390fd5b505050565b60007f01ffc9a7000000000000000000000000000000000000000000000000000000007bffffffffffffffffffffffffffffffffffffffffffffffffffffffff1916827bffffffffffffffffffffffffffffffffffffffffffffffffffffffff1916149050919050565b60008073ffffffffffffffffffffffffffffffffffffffff166118fe8361152d565b73ffffffffffffffffffffffffffffffffffffffff1614159050919050565b61192984848484611f78565b600181111561196d576040517f08c379a00000000000000000000000000000000000000000000000000000000081526004016119649061343d565b60405180910390fd5b6000829050600073ffffffffffffffffffffffffffffffffffffffff168573ffffffffffffffffffffffffffffffffffffffff16036119b4576119af81611f7e565b6119f3565b8373ffffffffffffffffffffffffffffffffffffffff168573ffffffffffffffffffffffffffffffffffffffff16146119f2576119f18582611fc7565b5b5b600073ffffffffffffffffffffffffffffffffffffffff168473ffffffffffffffffffffffffffffffffffffffff1603611a3557611a3081612134565b611a74565b8473ffffffffffffffffffffffffffffffffffffffff168473ffffffffffffffffffffffffffffffffffffffff1614611a7357611a728482612205565b5b5b5050505050565b50505050565b6000611aa28473ffffffffffffffffffffffffffffffffffffffff16612284565b15611bfb578373ffffffffffffffffffffffffffffffffffffffff1663150b7a02611acb6110de565b8786866040518563ffffffff1660e01b8152600401611aed94939291906134b2565b6020604051808303816000875af1925050508015611b2957506040513d601f19601f82011682018060405250810190611b269190613513565b60015b611bab573d8060008114611b59576040519150601f19603f3d011682016040523d82523d6000602084013e611b5e565b606091505b506000815103611ba3576040517f08c379a0000000000000000000000000000000000000000000000000000000008152600401611b9a9061337c565b60405180910390fd5b805181602001fd5b63150b7a0260e01b7bffffffffffffffffffffffffffffffffffffffffffffffffffffffff1916817bffffffffffffffffffffffffffffffffffffffffffffffffffffffff191614915050611c00565b600190505b949350505050565b600080600090507a184f03e93ff9f4daa797ed6e38ed64bf6a1f0100000000000000008310611c66577a184f03e93ff9f4daa797ed6e38ed64bf6a1f0100000000000000008381611c5c57611c5b61339c565b5b0492506040810190505b6d04ee2d6d415b85acef81000000008310611ca3576d04ee2d6d415b85acef81000000008381611c9957611c9861339c565b5b0492506020810190505b662386f26fc100008310611cd257662386f26fc100008381611cc857611cc761339c565b5b0492506010810190505b6305f5e1008310611cfb576305f5e1008381611cf157611cf061339c565b5b0492506008810190505b6127108310611d20576127108381611d1657611d1561339c565b5b0492506004810190505b60648310611d435760648381611d3957611d3861339c565b5b0492506002810190505b600a8310611d52576001810190505b80915050919050565b600073ffffffffffffffffffffffffffffffffffffffff168273ffffffffffffffffffffffffffffffffffffffff1603611dca576040517f08c379a0000000000000000000000000000000000000000000000000000000008152600401611dc19061358c565b60405180910390fd5b611dd3816118dc565b15611e13576040517f08c379a0000000000000000000000000000000000000000000000000000000008152600401611e0a906135f8565b60405180910390fd5b611e2160008383600161191d565b611e2a816118dc565b15611e6a576040517f08c379a0000000000000000000000000000000000000000000000000000000008152600401611e61906135f8565b60405180910390fd5b6001600360008473ffffffffffffffffffffffffffffffffffffffff1673ffffffffffffffffffffffffffffffffffffffff16815260200190815260200160002060008282540192505081905550816002600083815260200190815260200160002060006101000a81548173ffffffffffffffffffffffffffffffffffffffff021916908373ffffffffffffffffffffffffffffffffffffffff160217905550808273ffffffffffffffffffffffffffffffffffffffff16600073ffffffffffffffffffffffffffffffffffffffff167fddf252ad1be2c89b69c2b068fc378daa952ba7f163c4a11628f55a4df523b3ef60405160405180910390a4611f74600083836001611a7b565b5050565b50505050565b6008805490506009600083815260200190815260200160002081905550600881908060018154018082558091505060019003906000526020600020016000909190919091505550565b60006001611fd4846109d4565b611fde9190613647565b90506000600760008481526020019081526020016000205490508181146120c3576000600660008673ffffffffffffffffffffffffffffffffffffffff1673ffffffffffffffffffffffffffffffffffffffff168152602001908152602001600020600084815260200190815260200160002054905080600660008773ffffffffffffffffffffffffffffffffffffffff1673ffffffffffffffffffffffffffffffffffffffff168152602001908152602001600020600084815260200190815260200160002081905550816007600083815260200190815260200160002081905550505b6007600084815260200190815260200160002060009055600660008573ffffffffffffffffffffffffffffffffffffffff1673ffffffffffffffffffffffffffffffffffffffff16815260200190815260200160002060008381526020019081526020016000206000905550505050565b600060016008805490506121489190613647565b905060006009600084815260200190815260200160002054905060006008838154811061217857612177612fed565b5b90600052602060002001549050806008838154811061219a57612199612fed565b5b9060005260206000200181905550816009600083815260200190815260200160002081905550600960008581526020019081526020016000206000905560088054806121e9576121e861367b565b5b6001900381819060005260206000200160009055905550505050565b6000612210836109d4565b905081600660008573ffffffffffffffffffffffffffffffffffffffff1673ffffffffffffffffffffffffffffffffffffffff168152602001908152602001600020600083815260200190815260200160002081905550806007600084815260200190815260200160002081905550505050565b6000808273ffffffffffffffffffffffffffffffffffffffff163b119050919050565b8280546122b390612ce2565b90600052602060002090601f0160209004810192826122d5576000855561231c565b82601f106122ee57805160ff191683800117855561231c565b8280016001018555821561231c579182015b8281111561231b578251825591602001919060010190612300565b5b509050612329919061237a565b5090565b828054828255906000526020600020908101928215612369579160200282015b8281111561236857825182559160200191906001019061234d565b5b509050612376919061237a565b5090565b5b8082111561239357600081600090555060010161237b565b5090565b6000604051905090565b600080fd5b600080fd5b600080fd5b600080fd5b6000601f19601f8301169050919050565b7f4e487b7100000000000000000000000000000000000000000000000000000000600052604160045260246000fd5b6123fe826123b5565b810181811067ffffffffffffffff8211171561241d5761241c6123c6565b5b80604052505050565b6000612430612397565b905061243c82826123f5565b919050565b600067ffffffffffffffff82111561245c5761245b6123c6565b5b612465826123b5565b9050602081019050919050565b82818337600083830152505050565b600061249461248f84612441565b612426565b9050828152602081018484840111156124b0576124af6123b0565b5b6124bb848285612472565b509392505050565b600082601f8301126124d8576124d76123ab565b5b81356124e8848260208601612481565b91505092915050565b600067ffffffffffffffff82111561250c5761250b6123c6565b5b602082029050602081019050919050565b600080fd5b6000819050919050565b61253581612522565b811461254057600080fd5b50565b6000813590506125528161252c565b92915050565b600061256b612566846124f1565b612426565b9050808382526020820190506020840283018581111561258e5761258d61251d565b5b835b818110156125b757806125a38882612543565b845260208401935050602081019050612590565b5050509392505050565b600082601f8301126125d6576125d56123ab565b5b81356125e6848260208601612558565b91505092915050565b60008060008060008060c0878903121561260c5761260b6123a1565b5b600087013567ffffffffffffffff81111561262a576126296123a6565b5b61263689828a016124c3565b965050602087013567ffffffffffffffff811115612657576126566123a6565b5b61266389828a016124c3565b955050604087013567ffffffffffffffff811115612684576126836123a6565b5b61269089828a016124c3565b945050606087013567ffffffffffffffff8111156126b1576126b06123a6565b5b6126bd89828a016124c3565b935050608087013567ffffffffffffffff8111156126de576126dd6123a6565b5b6126ea89828a016125c1565b92505060a087013567ffffffffffffffff81111561270b5761270a6123a6565b5b61271789828a016124c3565b9150509295509295509295565b61272d81612522565b82525050565b60006020820190506127486000830184612724565b92915050565b60007fffffffff0000000000000000000000000000000000000000000000000000000082169050919050565b6127838161274e565b811461278e57600080fd5b50565b6000813590506127a08161277a565b92915050565b6000602082840312156127bc576127bb6123a1565b5b60006127ca84828501612791565b91505092915050565b60008115159050919050565b6127e8816127d3565b82525050565b600060208201905061280360008301846127df565b92915050565b600081519050919050565b600082825260208201905092915050565b60005b83811015612843578082015181840152602081019050612828565b83811115612852576000848401525b50505050565b600061286382612809565b61286d8185612814565b935061287d818560208601612825565b612886816123b5565b840191505092915050565b600060208201905081810360008301526128ab8184612858565b905092915050565b6000602082840312156128c9576128c86123a1565b5b60006128d784828501612543565b91505092915050565b600073ffffffffffffffffffffffffffffffffffffffff82169050919050565b600061290b826128e0565b9050919050565b61291b81612900565b82525050565b60006020820190506129366000830184612912565b92915050565b61294581612900565b811461295057600080fd5b50565b6000813590506129628161293c565b92915050565b6000806040838503121561297f5761297e6123a1565b5b600061298d85828601612953565b925050602061299e85828601612543565b9150509250929050565b6000806000606084860312156129c1576129c06123a1565b5b60006129cf86828701612953565b93505060206129e086828701612953565b92505060406129f186828701612543565b9150509250925092565b600060208284031215612a1157612a106123a1565b5b6000612a1f84828501612953565b91505092915050565b600060a0820190508181036000830152612a428188612858565b90508181036020830152612a568187612858565b90508181036040830152612a6a8186612858565b90508181036060830152612a7e8185612858565b90508181036080830152612a928184612858565b90509695505050505050565b612aa7816127d3565b8114612ab257600080fd5b50565b600081359050612ac481612a9e565b92915050565b60008060408385031215612ae157612ae06123a1565b5b6000612aef85828601612953565b9250506020612b0085828601612ab5565b9150509250929050565b600067ffffffffffffffff821115612b2557612b246123c6565b5b612b2e826123b5565b9050602081019050919050565b6000612b4e612b4984612b0a565b612426565b905082815260208101848484011115612b6a57612b696123b0565b5b612b75848285612472565b509392505050565b600082601f830112612b9257612b916123ab565b5b8135612ba2848260208601612b3b565b91505092915050565b60008060008060808587031215612bc557612bc46123a1565b5b6000612bd387828801612953565b9450506020612be487828801612953565b9350506040612bf587828801612543565b925050606085013567ffffffffffffffff811115612c1657612c156123a6565b5b612c2287828801612b7d565b91505092959194509250565b60008060408385031215612c4557612c446123a1565b5b6000612c5385828601612953565b9250506020612c6485828601612953565b9150509250929050565b6000606082019050612c836000830186612724565b8181036020830152612c958185612858565b90508181036040830152612ca98184612858565b9050949350505050565b7f4e487b7100000000000000000000000000000000000000000000000000000000600052602260045260246000fd5b60006002820490506001821680612cfa57607f821691505b602082108103612d0d57612d0c612cb3565b5b50919050565b7f4552433732313a20617070726f76616c20746f2063757272656e74206f776e6560008201527f7200000000000000000000000000000000000000000000000000000000000000602082015250565b6000612d6f602183612814565b9150612d7a82612d13565b604082019050919050565b60006020820190508181036000830152612d9e81612d62565b9050919050565b7f4552433732313a20617070726f76652063616c6c6572206973206e6f7420746f60008201527f6b656e206f776e6572206f7220617070726f76656420666f7220616c6c000000602082015250565b6000612e01603d83612814565b9150612e0c82612da5565b604082019050919050565b60006020820190508181036000830152612e3081612df4565b9050919050565b7f4552433732313a2063616c6c6572206973206e6f7420746f6b656e206f776e6560008201527f72206f7220617070726f76656400000000000000000000000000000000000000602082015250565b6000612e93602d83612814565b9150612e9e82612e37565b604082019050919050565b60006020820190508181036000830152612ec281612e86565b9050919050565b7f455243373231456e756d657261626c653a206f776e657220696e646578206f7560008201527f74206f6620626f756e6473000000000000000000000000000000000000000000602082015250565b6000612f25602b83612814565b9150612f3082612ec9565b604082019050919050565b60006020820190508181036000830152612f5481612f18565b9050919050565b7f455243373231456e756d657261626c653a20676c6f62616c20696e646578206f60008201527f7574206f6620626f756e64730000000000000000000000000000000000000000602082015250565b6000612fb7602c83612814565b9150612fc282612f5b565b604082019050919050565b60006020820190508181036000830152612fe681612faa565b9050919050565b7f4e487b7100000000000000000000000000000000000000000000000000000000600052603260045260246000fd5b7f4552433732313a20696e76616c696420746f6b656e2049440000000000000000600082015250565b6000613052601883612814565b915061305d8261301c565b602082019050919050565b6000602082019050818103600083015261308181613045565b9050919050565b7f4552433732313a2061646472657373207a65726f206973206e6f74206120766160008201527f6c6964206f776e65720000000000000000000000000000000000000000000000602082015250565b60006130e4602983612814565b91506130ef82613088565b604082019050919050565b60006020820190508181036000830152613113816130d7565b9050919050565b600081905092915050565b600061313082612809565b61313a818561311a565b935061314a818560208601612825565b80840191505092915050565b60006131628285613125565b915061316e8284613125565b91508190509392505050565b7f4552433732313a207472616e736665722066726f6d20696e636f72726563742060008201527f6f776e6572000000000000000000000000000000000000000000000000000000602082015250565b60006131d6602583612814565b91506131e18261317a565b604082019050919050565b60006020820190508181036000830152613205816131c9565b9050919050565b7f4552433732313a207472616e7366657220746f20746865207a65726f2061646460008201527f7265737300000000000000000000000000000000000000000000000000000000602082015250565b6000613268602483612814565b91506132738261320c565b604082019050919050565b600060208201905081810360008301526132978161325b565b9050919050565b7f4552433732313a20617070726f766520746f2063616c6c657200000000000000600082015250565b60006132d4601983612814565b91506132df8261329e565b602082019050919050565b60006020820190508181036000830152613303816132c7565b9050919050565b7f4552433732313a207472616e7366657220746f206e6f6e20455243373231526560008201527f63656976657220696d706c656d656e7465720000000000000000000000000000602082015250565b6000613366603283612814565b91506133718261330a565b604082019050919050565b6000602082019050818103600083015261339581613359565b9050919050565b7f4e487b7100000000000000000000000000000000000000000000000000000000600052601260045260246000fd5b7f455243373231456e756d657261626c653a20636f6e736563757469766520747260008201527f616e7366657273206e6f7420737570706f727465640000000000000000000000602082015250565b6000613427603583612814565b9150613432826133cb565b604082019050919050565b600060208201905081810360008301526134568161341a565b9050919050565b600081519050919050565b600082825260208201905092915050565b60006134848261345d565b61348e8185613468565b935061349e818560208601612825565b6134a7816123b5565b840191505092915050565b60006080820190506134c76000830187612912565b6134d46020830186612912565b6134e16040830185612724565b81810360608301526134f38184613479565b905095945050505050565b60008151905061350d8161277a565b92915050565b600060208284031215613529576135286123a1565b5b6000613537848285016134fe565b91505092915050565b7f4552433732313a206d696e7420746f20746865207a65726f2061646472657373600082015250565b6000613576602083612814565b915061358182613540565b602082019050919050565b600060208201905081810360008301526135a581613569565b9050919050565b7f4552433732313a20746f6b656e20616c7265616479206d696e74656400000000600082015250565b60006135e2601c83612814565b91506135ed826135ac565b602082019050919050565b60006020820190508181036000830152613611816135d5565b9050919050565b7f4e487b7100000000000000000000000000000000000000000000000000000000600052601160045260246000fd5b600061365282612522565b915061365d83612522565b9250828210156136705761366f613618565b5b828203905092915050565b7f4e487b7100000000000000000000000000000000000000000000000000000000600052603160045260246000fdfea26469706673582212208919b7e8d570c31c664ff7ff4f7cc18577397731f4e34e53afeb0e411c47143d64736f6c634300080d0033",
  "immutableReferences": {},
  "source": "pragma solidity ^0.8.0;\n\nimport \"@openzeppelin/contracts/token/ERC721/extensions/ERC721Enumerable.sol\";\nimport \"@openzeppelin/contracts/utils/Counters.sol\";\n\ncontract ACNFTDegree is ERC721Enumerable {\n    using Counters for Counters.Counter;\n    Counters.Counter private _degreeIdCounter;\n\n    struct Degree {\n        string schoolName;\n        string schoolCode;\n        string studentName;\n        string studentID;\n        uint256[] associatedGrades;  // for ACNFTGrade NFT ID\n        string otherInformation;     // name of the dean, special contributions, achievements, etc.\n    }\n\n    mapping(uint256 => Degree) public degrees;\n\n    constructor() ERC721(\"Academic Certificate NFT Degree\", \"ACNFTDegree\") {}\n\n    event DegreeMinted(uint256 degreeId, string studentName, string schoolName);\n\n    function mintDegree(\n        string memory _schoolName,\n        string memory _schoolCode,\n        string memory _studentName,\n        string memory _studentID,\n        uint256[] memory _associatedGrades,\n        string memory _otherInformation\n    ) external returns (uint256) {\n        _degreeIdCounter.increment();\n        uint256 newDegreeId = _degreeIdCounter.current();\n        _safeMint(msg.sender, newDegreeId);\n\n        degrees[newDegreeId] = Degree({\n            schoolName: _schoolName,\n            schoolCode: _schoolCode,\n            studentName: _studentName,\n            studentID: _studentID,\n            associatedGrades: _associatedGrades,\n            otherInformation: _otherInformation\n        });\n\n        emit DegreeMinted(newDegreeId, _studentName, _schoolName);\n        return newDegreeId;\n    }\n}\n",
  "sourcePath": "/Users/ac_m1a/Library/CloudStorage/Dropbox/AUT_CS/comp842_cc/as01/src/ACNFT/contracts/ACNFTDegree.sol",
  "compiler": {
    "name": "solc",
    "version": "0.8.13+commit.abaa5c0e.Emscripten.clang"
  },
  "schemaVersion": "3.4.16",
  "updatedAt": "2023-09-10T07:10:21.156Z",
  "networkType": "ethereum",
  "devdoc": {
    "kind": "dev",
    "methods": {
      "approve(address,uint256)": {
        "details": "See {IERC721-approve}."
      },
      "balanceOf(address)": {
        "details": "See {IERC721-balanceOf}."
      },
      "getApproved(uint256)": {
        "details": "See {IERC721-getApproved}."
      },
      "isApprovedForAll(address,address)": {
        "details": "See {IERC721-isApprovedForAll}."
      },
      "name()": {
        "details": "See {IERC721Metadata-name}."
      },
      "ownerOf(uint256)": {
        "details": "See {IERC721-ownerOf}."
      },
      "safeTransferFrom(address,address,uint256)": {
        "details": "See {IERC721-safeTransferFrom}."
      },
      "safeTransferFrom(address,address,uint256,bytes)": {
        "details": "See {IERC721-safeTransferFrom}."
      },
      "setApprovalForAll(address,bool)": {
        "details": "See {IERC721-setApprovalForAll}."
      },
      "supportsInterface(bytes4)": {
        "details": "See {IERC165-supportsInterface}."
      },
      "symbol()": {
        "details": "See {IERC721Metadata-symbol}."
      },
      "tokenByIndex(uint256)": {
        "details": "See {IERC721Enumerable-tokenByIndex}."
      },
      "tokenOfOwnerByIndex(address,uint256)": {
        "details": "See {IERC721Enumerable-tokenOfOwnerByIndex}."
      },
      "tokenURI(uint256)": {
        "details": "See {IERC721Metadata-tokenURI}."
      },
      "totalSupply()": {
        "details": "See {IERC721Enumerable-totalSupply}."
      },
      "transferFrom(address,address,uint256)": {
        "details": "See {IERC721-transferFrom}."
      }
    },
    "version": 1
  },
  "userdoc": {
    "kind": "user",
    "methods": {},
    "version": 1
  }
}