{
  "contractName": "ACNFTGrade",
  "abi": [
    {
      "inputs": [],
      "stateMutability": "nonpayable",
      "type": "constructor"
    },
    {
      "anonymous": false,
      "inputs": [
        {
          "indexed": true,
          "internalType": "address",
          "name": "owner",
          "type": "address"
        },
        {
          "indexed": true,
          "internalType": "address",
          "name": "approved",
          "type": "address"
        },
        {
          "indexed": true,
          "internalType": "uint256",
          "name": "tokenId",
          "type": "uint256"
        }
      ],
      "name": "Approval",
      "type": "event"
    },
    {
      "anonymous": false,
      "inputs": [
        {
          "indexed": true,
          "internalType": "address",
          "name": "owner",
          "type": "address"
        },
        {
          "indexed": true,
          "internalType": "address",
          "name": "operator",
          "type": "address"
        },
        {
          "indexed": false,
          "internalType": "bool",
          "name": "approved",
          "type": "bool"
        }
      ],
      "name": "ApprovalForAll",
      "type": "event"
    },
    {
      "anonymous": false,
      "inputs": [
        {
          "indexed": true,
          "internalType": "address",
          "name": "from",
          "type": "address"
        },
        {
          "indexed": true,
          "internalType": "address",
          "name": "to",
          "type": "address"
        },
        {
          "indexed": true,
          "internalType": "uint256",
          "name": "tokenId",
          "type": "uint256"
        }
      ],
      "name": "Transfer",
      "type": "event"
    },
    {
      "inputs": [
        {
          "internalType": "address",
          "name": "to",
          "type": "address"
        },
        {
          "internalType": "uint256",
          "name": "tokenId",
          "type": "uint256"
        }
      ],
      "name": "approve",
      "outputs": [],
      "stateMutability": "nonpayable",
      "type": "function"
    },
    {
      "inputs": [
        {
          "internalType": "address",
          "name": "owner",
          "type": "address"
        }
      ],
      "name": "balanceOf",
      "outputs": [
        {
          "internalType": "uint256",
          "name": "",
          "type": "uint256"
        }
      ],
      "stateMutability": "view",
      "type": "function",
      "constant": true
    },
    {
      "inputs": [
        {
          "internalType": "uint256",
          "name": "tokenId",
          "type": "uint256"
        }
      ],
      "name": "getApproved",
      "outputs": [
        {
          "internalType": "address",
          "name": "",
          "type": "address"
        }
      ],
      "stateMutability": "view",
      "type": "function",
      "constant": true
    },
    {
      "inputs": [
        {
          "internalType": "uint256",
          "name": "",
          "type": "uint256"
        }
      ],
      "name": "grades",
      "outputs": [
        {
          "internalType": "string",
          "name": "schoolName",
          "type": "string"
        },
        {
          "internalType": "string",
          "name": "schoolCode",
          "type": "string"
        },
        {
          "internalType": "string",
          "name": "studentName",
          "type": "string"
        },
        {
          "internalType": "string",
          "name": "studentID",
          "type": "string"
        },
        {
          "internalType": "string",
          "name": "courseName",
          "type": "string"
        },
        {
          "internalType": "string",
          "name": "courseID",
          "type": "string"
        },
        {
          "internalType": "uint256",
          "name": "courseStartYear",
          "type": "uint256"
        },
        {
          "internalType": "string",
          "name": "courseOtherInfo",
          "type": "string"
        },
        {
          "internalType": "uint256",
          "name": "gradeValue",
          "type": "uint256"
        },
        {
          "internalType": "string",
          "name": "gradeLetter",
          "type": "string"
        }
      ],
      "stateMutability": "view",
      "type": "function",
      "constant": true
    },
    {
      "inputs": [
        {
          "internalType": "address",
          "name": "owner",
          "type": "address"
        },
        {
          "internalType": "address",
          "name": "operator",
          "type": "address"
        }
      ],
      "name": "isApprovedForAll",
      "outputs": [
        {
          "internalType": "bool",
          "name": "",
          "type": "bool"
        }
      ],
      "stateMutability": "view",
      "type": "function",
      "constant": true
    },
    {
      "inputs": [],
      "name": "name",
      "outputs": [
        {
          "internalType": "string",
          "name": "",
          "type": "string"
        }
      ],
      "stateMutability": "view",
      "type": "function",
      "constant": true
    },
    {
      "inputs": [
        {
          "internalType": "uint256",
          "name": "tokenId",
          "type": "uint256"
        }
      ],
      "name": "ownerOf",
      "outputs": [
        {
          "internalType": "address",
          "name": "",
          "type": "address"
        }
      ],
      "stateMutability": "view",
      "type": "function",
      "constant": true
    },
    {
      "inputs": [
        {
          "internalType": "address",
          "name": "from",
          "type": "address"
        },
        {
          "internalType": "address",
          "name": "to",
          "type": "address"
        },
        {
          "internalType": "uint256",
          "name": "tokenId",
          "type": "uint256"
        }
      ],
      "name": "safeTransferFrom",
      "outputs": [],
      "stateMutability": "nonpayable",
      "type": "function"
    },
    {
      "inputs": [
        {
          "internalType": "address",
          "name": "from",
          "type": "address"
        },
        {
          "internalType": "address",
          "name": "to",
          "type": "address"
        },
        {
          "internalType": "uint256",
          "name": "tokenId",
          "type": "uint256"
        },
        {
          "internalType": "bytes",
          "name": "data",
          "type": "bytes"
        }
      ],
      "name": "safeTransferFrom",
      "outputs": [],
      "stateMutability": "nonpayable",
      "type": "function"
    },
    {
      "inputs": [
        {
          "internalType": "address",
          "name": "operator",
          "type": "address"
        },
        {
          "internalType": "bool",
          "name": "approved",
          "type": "bool"
        }
      ],
      "name": "setApprovalForAll",
      "outputs": [],
      "stateMutability": "nonpayable",
      "type": "function"
    },
    {
      "inputs": [
        {
          "internalType": "bytes4",
          "name": "interfaceId",
          "type": "bytes4"
        }
      ],
      "name": "supportsInterface",
      "outputs": [
        {
          "internalType": "bool",
          "name": "",
          "type": "bool"
        }
      ],
      "stateMutability": "view",
      "type": "function",
      "constant": true
    },
    {
      "inputs": [],
      "name": "symbol",
      "outputs": [
        {
          "internalType": "string",
          "name": "",
          "type": "string"
        }
      ],
      "stateMutability": "view",
      "type": "function",
      "constant": true
    },
    {
      "inputs": [
        {
          "internalType": "uint256",
          "name": "index",
          "type": "uint256"
        }
      ],
      "name": "tokenByIndex",
      "outputs": [
        {
          "internalType": "uint256",
          "name": "",
          "type": "uint256"
        }
      ],
      "stateMutability": "view",
      "type": "function",
      "constant": true
    },
    {
      "inputs": [
        {
          "internalType": "address",
          "name": "owner",
          "type": "address"
        },
        {
          "internalType": "uint256",
          "name": "index",
          "type": "uint256"
        }
      ],
      "name": "tokenOfOwnerByIndex",
      "outputs": [
        {
          "internalType": "uint256",
          "name": "",
          "type": "uint256"
        }
      ],
      "stateMutability": "view",
      "type": "function",
      "constant": true
    },
    {
      "inputs": [
        {
          "internalType": "uint256",
          "name": "tokenId",
          "type": "uint256"
        }
      ],
      "name": "tokenURI",
      "outputs": [
        {
          "internalType": "string",
          "name": "",
          "type": "string"
        }
      ],
      "stateMutability": "view",
      "type": "function",
      "constant": true
    },
    {
      "inputs": [],
      "name": "totalSupply",
      "outputs": [
        {
          "internalType": "uint256",
          "name": "",
          "type": "uint256"
        }
      ],
      "stateMutability": "view",
      "type": "function",
      "constant": true
    },
    {
      "inputs": [
        {
          "internalType": "address",
          "name": "from",
          "type": "address"
        },
        {
          "internalType": "address",
          "name": "to",
          "type": "address"
        },
        {
          "internalType": "uint256",
          "name": "tokenId",
          "type": "uint256"
        }
      ],
      "name": "transferFrom",
      "outputs": [],
      "stateMutability": "nonpayable",
      "type": "function"
    },
    {
      "inputs": [
        {
          "internalType": "string",
          "name": "_schoolName",
          "type": "string"
        },
        {
          "internalType": "string",
          "name": "_schoolCode",
          "type": "string"
        },
        {
          "internalType": "string",
          "name": "_studentName",
          "type": "string"
        },
        {
          "internalType": "string",
          "name": "_studentID",
          "type": "string"
        },
        {
          "internalType": "string",
          "name": "_courseName",
          "type": "string"
        },
        {
          "internalType": "string",
          "name": "_courseID",
          "type": "string"
        },
        {
          "internalType": "uint256",
          "name": "_courseStartYear",
          "type": "uint256"
        },
        {
          "internalType": "string",
          "name": "_courseOtherInfo",
          "type": "string"
        },
        {
          "internalType": "uint256",
          "name": "_gradeValue",
          "type": "uint256"
        },
        {
          "internalType": "string",
          "name": "_gradeLetter",
          "type": "string"
        }
      ],
      "name": "mintGrade",
      "outputs": [
        {
          "internalType": "uint256",
          "name": "",
          "type": "uint256"
        }
      ],
      "stateMutability": "nonpayable",
      "type": "function"
    },
    {
      "inputs": [
        {
          "internalType": "uint256",
          "name": "tokenId",
          "type": "uint256"
        }
      ],
      "name": "getGrade",
      "outputs": [
        {
          "components": [
            {
              "internalType": "string",
              "name": "schoolName",
              "type": "string"
            },
            {
              "internalType": "string",
              "name": "schoolCode",
              "type": "string"
            },
            {
              "internalType": "string",
              "name": "studentName",
              "type": "string"
            },
            {
              "internalType": "string",
              "name": "studentID",
              "type": "string"
            },
            {
              "internalType": "string",
              "name": "courseName",
              "type": "string"
            },
            {
              "internalType": "string",
              "name": "courseID",
              "type": "string"
            },
            {
              "internalType": "uint256",
              "name": "courseStartYear",
              "type": "uint256"
            },
            {
              "internalType": "string",
              "name": "courseOtherInfo",
              "type": "string"
            },
            {
              "internalType": "uint256",
              "name": "gradeValue",
              "type": "uint256"
            },
            {
              "internalType": "string",
              "name": "gradeLetter",
              "type": "string"
            }
          ],
          "internalType": "struct ACNFTGrade.Grade",
          "name": "",
          "type": "tuple"
        }
      ],
      "stateMutability": "view",
      "type": "function",
      "constant": true
    }
  ],
  "bytecode": "0x60806040523480156200001157600080fd5b506040518060400160405280601881526020017f41636164656d6963204365727469666963617465204e465400000000000000008152506040518060400160405280600581526020017f41434e4654000000000000000000000000000000000000000000000000000000815250816000908051906020019062000096929190620000b8565b508060019080519060200190620000af929190620000b8565b505050620001cc565b828054620000c69062000197565b90600052602060002090601f016020900481019282620000ea576000855562000136565b82601f106200010557805160ff191683800117855562000136565b8280016001018555821562000136579182015b828111156200013557825182559160200191906001019062000118565b5b50905062000145919062000149565b5090565b5b80821115620001645760008160009055506001016200014a565b5090565b7f4e487b7100000000000000000000000000000000000000000000000000000000600052602260045260246000fd5b60006002820490506001821680620001b057607f821691505b602082108103620001c657620001c562000168565b5b50919050565b613f4880620001dc6000396000f3fe608060405234801561001057600080fd5b50600436106101215760003560e01c80634b22fc62116100ad578063a22cb46511610071578063a22cb4651461035d578063b88d4fde14610379578063c87b56dd14610395578063e1e0485e146103c5578063e985e9c5146103f557610121565b80634b22fc62146102765780634f6ccce7146102af5780636352211e146102df57806370a082311461030f57806395d89b411461033f57610121565b806318160ddd116100f457806318160ddd146101c057806323b872dd146101de5780632db0b4fb146101fa5780632f745c591461022a57806342842e0e1461025a57610121565b806301ffc9a71461012657806306fdde0314610156578063081812fc14610174578063095ea7b3146101a4575b600080fd5b610140600480360381019061013b9190612b0a565b610425565b60405161014d9190612b52565b60405180910390f35b61015e61049f565b60405161016b9190612c06565b60405180910390f35b61018e60048036038101906101899190612c5e565b610531565b60405161019b9190612ccc565b60405180910390f35b6101be60048036038101906101b99190612d13565b610577565b005b6101c861068e565b6040516101d59190612d62565b60405180910390f35b6101f860048036038101906101f39190612d7d565b61069b565b005b610214600480360381019061020f9190612f05565b6106fb565b6040516102219190612d62565b60405180910390f35b610244600480360381019061023f9190612d13565b610891565b6040516102519190612d62565b60405180910390f35b610274600480360381019061026f9190612d7d565b610936565b005b610290600480360381019061028b9190612c5e565b610956565b6040516102a69a999897969594939291906130c4565b60405180910390f35b6102c960048036038101906102c49190612c5e565b610dea565b6040516102d69190612d62565b60405180910390f35b6102f960048036038101906102f49190612c5e565b610e5b565b6040516103069190612ccc565b60405180910390f35b61032960048036038101906103249190613198565b610ee1565b6040516103369190612d62565b60405180910390f35b610347610f98565b6040516103549190612c06565b60405180910390f35b610377600480360381019061037291906131f1565b61102a565b005b610393600480360381019061038e91906132d2565b611040565b005b6103af60048036038101906103aa9190612c5e565b6110a2565b6040516103bc9190612c06565b60405180910390f35b6103df60048036038101906103da9190612c5e565b61110a565b6040516103ec91906134b9565b60405180910390f35b61040f600480360381019061040a91906134db565b6115dc565b60405161041c9190612b52565b60405180910390f35b60007f780e9d63000000000000000000000000000000000000000000000000000000007bffffffffffffffffffffffffffffffffffffffffffffffffffffffff1916827bffffffffffffffffffffffffffffffffffffffffffffffffffffffff19161480610498575061049782611670565b5b9050919050565b6060600080546104ae9061354a565b80601f01602080910402602001604051908101604052809291908181526020018280546104da9061354a565b80156105275780601f106104fc57610100808354040283529160200191610527565b820191906000526020600020905b81548152906001019060200180831161050a57829003601f168201915b5050505050905090565b600061053c82611752565b6004600083815260200190815260200160002060009054906101000a900473ffffffffffffffffffffffffffffffffffffffff169050919050565b600061058282610e5b565b90508073ffffffffffffffffffffffffffffffffffffffff168373ffffffffffffffffffffffffffffffffffffffff16036105f2576040517f08c379a00000000000000000000000000000000000000000000000000000000081526004016105e9906135ed565b60405180910390fd5b8073ffffffffffffffffffffffffffffffffffffffff1661061161179d565b73ffffffffffffffffffffffffffffffffffffffff161480610640575061063f8161063a61179d565b6115dc565b5b61067f576040517f08c379a00000000000000000000000000000000000000000000000000000000081526004016106769061367f565b60405180910390fd5b61068983836117a5565b505050565b6000600880549050905090565b6106ac6106a661179d565b8261185e565b6106eb576040517f08c379a00000000000000000000000000000000000000000000000000000000081526004016106e290613711565b60405180910390fd5b6106f68383836118f3565b505050565b6000610707600a611bec565b6000610713600a611c02565b905061071f3382611c10565b60006040518061014001604052808e81526020018d81526020018c81526020018b81526020018a815260200189815260200188815260200187815260200186815260200185815250905080600b600084815260200190815260200160002060008201518160000190805190602001906107999291906129a8565b5060208201518160010190805190602001906107b69291906129a8565b5060408201518160020190805190602001906107d39291906129a8565b5060608201518160030190805190602001906107f09291906129a8565b50608082015181600401908051906020019061080d9291906129a8565b5060a082015181600501908051906020019061082a9291906129a8565b5060c0820151816006015560e08201518160070190805190602001906108519291906129a8565b50610100820151816008015561012082015181600901908051906020019061087a9291906129a8565b5090505081925050509a9950505050505050505050565b600061089c83610ee1565b82106108dd576040517f08c379a00000000000000000000000000000000000000000000000000000000081526004016108d4906137a3565b60405180910390fd5b600660008473ffffffffffffffffffffffffffffffffffffffff1673ffffffffffffffffffffffffffffffffffffffff168152602001908152602001600020600083815260200190815260200160002054905092915050565b61095183838360405180602001604052806000815250611040565b505050565b600b6020528060005260406000206000915090508060000180546109799061354a565b80601f01602080910402602001604051908101604052809291908181526020018280546109a59061354a565b80156109f25780601f106109c7576101008083540402835291602001916109f2565b820191906000526020600020905b8154815290600101906020018083116109d557829003601f168201915b505050505090806001018054610a079061354a565b80601f0160208091040260200160405190810160405280929190818152602001828054610a339061354a565b8015610a805780601f10610a5557610100808354040283529160200191610a80565b820191906000526020600020905b815481529060010190602001808311610a6357829003601f168201915b505050505090806002018054610a959061354a565b80601f0160208091040260200160405190810160405280929190818152602001828054610ac19061354a565b8015610b0e5780601f10610ae357610100808354040283529160200191610b0e565b820191906000526020600020905b815481529060010190602001808311610af157829003601f168201915b505050505090806003018054610b239061354a565b80601f0160208091040260200160405190810160405280929190818152602001828054610b4f9061354a565b8015610b9c5780601f10610b7157610100808354040283529160200191610b9c565b820191906000526020600020905b815481529060010190602001808311610b7f57829003601f168201915b505050505090806004018054610bb19061354a565b80601f0160208091040260200160405190810160405280929190818152602001828054610bdd9061354a565b8015610c2a5780601f10610bff57610100808354040283529160200191610c2a565b820191906000526020600020905b815481529060010190602001808311610c0d57829003601f168201915b505050505090806005018054610c3f9061354a565b80601f0160208091040260200160405190810160405280929190818152602001828054610c6b9061354a565b8015610cb85780601f10610c8d57610100808354040283529160200191610cb8565b820191906000526020600020905b815481529060010190602001808311610c9b57829003601f168201915b505050505090806006015490806007018054610cd39061354a565b80601f0160208091040260200160405190810160405280929190818152602001828054610cff9061354a565b8015610d4c5780601f10610d2157610100808354040283529160200191610d4c565b820191906000526020600020905b815481529060010190602001808311610d2f57829003601f168201915b505050505090806008015490806009018054610d679061354a565b80601f0160208091040260200160405190810160405280929190818152602001828054610d939061354a565b8015610de05780601f10610db557610100808354040283529160200191610de0565b820191906000526020600020905b815481529060010190602001808311610dc357829003601f168201915b505050505090508a565b6000610df461068e565b8210610e35576040517f08c379a0000000000000000000000000000000000000000000000000000000008152600401610e2c90613835565b60405180910390fd5b60088281548110610e4957610e48613855565b5b90600052602060002001549050919050565b600080610e6783611c2e565b9050600073ffffffffffffffffffffffffffffffffffffffff168173ffffffffffffffffffffffffffffffffffffffff1603610ed8576040517f08c379a0000000000000000000000000000000000000000000000000000000008152600401610ecf906138d0565b60405180910390fd5b80915050919050565b60008073ffffffffffffffffffffffffffffffffffffffff168273ffffffffffffffffffffffffffffffffffffffff1603610f51576040517f08c379a0000000000000000000000000000000000000000000000000000000008152600401610f4890613962565b60405180910390fd5b600360008373ffffffffffffffffffffffffffffffffffffffff1673ffffffffffffffffffffffffffffffffffffffff168152602001908152602001600020549050919050565b606060018054610fa79061354a565b80601f0160208091040260200160405190810160405280929190818152602001828054610fd39061354a565b80156110205780601f10610ff557610100808354040283529160200191611020565b820191906000526020600020905b81548152906001019060200180831161100357829003601f168201915b5050505050905090565b61103c61103561179d565b8383611c6b565b5050565b61105161104b61179d565b8361185e565b611090576040517f08c379a000000000000000000000000000000000000000000000000000000000815260040161108790613711565b60405180910390fd5b61109c84848484611dd7565b50505050565b60606110ad82611752565b60006110b7611e33565b905060008151116110d75760405180602001604052806000815250611102565b806110e184611e4a565b6040516020016110f29291906139be565b6040516020818303038152906040525b915050919050565b611112612a2e565b600b6000838152602001908152602001600020604051806101400160405290816000820180546111419061354a565b80601f016020809104026020016040519081016040528092919081815260200182805461116d9061354a565b80156111ba5780601f1061118f576101008083540402835291602001916111ba565b820191906000526020600020905b81548152906001019060200180831161119d57829003601f168201915b505050505081526020016001820180546111d39061354a565b80601f01602080910402602001604051908101604052809291908181526020018280546111ff9061354a565b801561124c5780601f106112215761010080835404028352916020019161124c565b820191906000526020600020905b81548152906001019060200180831161122f57829003601f168201915b505050505081526020016002820180546112659061354a565b80601f01602080910402602001604051908101604052809291908181526020018280546112919061354a565b80156112de5780601f106112b3576101008083540402835291602001916112de565b820191906000526020600020905b8154815290600101906020018083116112c157829003601f168201915b505050505081526020016003820180546112f79061354a565b80601f01602080910402602001604051908101604052809291908181526020018280546113239061354a565b80156113705780601f1061134557610100808354040283529160200191611370565b820191906000526020600020905b81548152906001019060200180831161135357829003601f168201915b505050505081526020016004820180546113899061354a565b80601f01602080910402602001604051908101604052809291908181526020018280546113b59061354a565b80156114025780601f106113d757610100808354040283529160200191611402565b820191906000526020600020905b8154815290600101906020018083116113e557829003601f168201915b5050505050815260200160058201805461141b9061354a565b80601f01602080910402602001604051908101604052809291908181526020018280546114479061354a565b80156114945780601f1061146957610100808354040283529160200191611494565b820191906000526020600020905b81548152906001019060200180831161147757829003601f168201915b50505050508152602001600682015481526020016007820180546114b79061354a565b80601f01602080910402602001604051908101604052809291908181526020018280546114e39061354a565b80156115305780601f1061150557610100808354040283529160200191611530565b820191906000526020600020905b81548152906001019060200180831161151357829003601f168201915b50505050508152602001600882015481526020016009820180546115539061354a565b80601f016020809104026020016040519081016040528092919081815260200182805461157f9061354a565b80156115cc5780601f106115a1576101008083540402835291602001916115cc565b820191906000526020600020905b8154815290600101906020018083116115af57829003601f168201915b5050505050815250509050919050565b6000600560008473ffffffffffffffffffffffffffffffffffffffff1673ffffffffffffffffffffffffffffffffffffffff16815260200190815260200160002060008373ffffffffffffffffffffffffffffffffffffffff1673ffffffffffffffffffffffffffffffffffffffff16815260200190815260200160002060009054906101000a900460ff16905092915050565b60007f80ac58cd000000000000000000000000000000000000000000000000000000007bffffffffffffffffffffffffffffffffffffffffffffffffffffffff1916827bffffffffffffffffffffffffffffffffffffffffffffffffffffffff1916148061173b57507f5b5e139f000000000000000000000000000000000000000000000000000000007bffffffffffffffffffffffffffffffffffffffffffffffffffffffff1916827bffffffffffffffffffffffffffffffffffffffffffffffffffffffff1916145b8061174b575061174a82611f18565b5b9050919050565b61175b81611f82565b61179a576040517f08c379a0000000000000000000000000000000000000000000000000000000008152600401611791906138d0565b60405180910390fd5b50565b600033905090565b816004600083815260200190815260200160002060006101000a81548173ffffffffffffffffffffffffffffffffffffffff021916908373ffffffffffffffffffffffffffffffffffffffff160217905550808273ffffffffffffffffffffffffffffffffffffffff1661181883610e5b565b73ffffffffffffffffffffffffffffffffffffffff167f8c5be1e5ebec7d5bd14f71427d1e84f3dd0314c0f7b2291e5b200ac8c7c3b92560405160405180910390a45050565b60008061186a83610e5b565b90508073ffffffffffffffffffffffffffffffffffffffff168473ffffffffffffffffffffffffffffffffffffffff1614806118ac57506118ab81856115dc565b5b806118ea57508373ffffffffffffffffffffffffffffffffffffffff166118d284610531565b73ffffffffffffffffffffffffffffffffffffffff16145b91505092915050565b8273ffffffffffffffffffffffffffffffffffffffff1661191382610e5b565b73ffffffffffffffffffffffffffffffffffffffff1614611969576040517f08c379a000000000000000000000000000000000000000000000000000000000815260040161196090613a54565b60405180910390fd5b600073ffffffffffffffffffffffffffffffffffffffff168273ffffffffffffffffffffffffffffffffffffffff16036119d8576040517f08c379a00000000000000000000000000000000000000000000000000000000081526004016119cf90613ae6565b60405180910390fd5b6119e58383836001611fc3565b8273ffffffffffffffffffffffffffffffffffffffff16611a0582610e5b565b73ffffffffffffffffffffffffffffffffffffffff1614611a5b576040517f08c379a0000000000000000000000000000000000000000000000000000000008152600401611a5290613a54565b60405180910390fd5b6004600082815260200190815260200160002060006101000a81549073ffffffffffffffffffffffffffffffffffffffff02191690556001600360008573ffffffffffffffffffffffffffffffffffffffff1673ffffffffffffffffffffffffffffffffffffffff168152602001908152602001600020600082825403925050819055506001600360008473ffffffffffffffffffffffffffffffffffffffff1673ffffffffffffffffffffffffffffffffffffffff16815260200190815260200160002060008282540192505081905550816002600083815260200190815260200160002060006101000a81548173ffffffffffffffffffffffffffffffffffffffff021916908373ffffffffffffffffffffffffffffffffffffffff160217905550808273ffffffffffffffffffffffffffffffffffffffff168473ffffffffffffffffffffffffffffffffffffffff167fddf252ad1be2c89b69c2b068fc378daa952ba7f163c4a11628f55a4df523b3ef60405160405180910390a4611be78383836001612121565b505050565b6001816000016000828254019250508190555050565b600081600001549050919050565b611c2a828260405180602001604052806000815250612127565b5050565b60006002600083815260200190815260200160002060009054906101000a900473ffffffffffffffffffffffffffffffffffffffff169050919050565b8173ffffffffffffffffffffffffffffffffffffffff168373ffffffffffffffffffffffffffffffffffffffff1603611cd9576040517f08c379a0000000000000000000000000000000000000000000000000000000008152600401611cd090613b52565b60405180910390fd5b80600560008573ffffffffffffffffffffffffffffffffffffffff1673ffffffffffffffffffffffffffffffffffffffff16815260200190815260200160002060008473ffffffffffffffffffffffffffffffffffffffff1673ffffffffffffffffffffffffffffffffffffffff16815260200190815260200160002060006101000a81548160ff0219169083151502179055508173ffffffffffffffffffffffffffffffffffffffff168373ffffffffffffffffffffffffffffffffffffffff167f17307eab39ab6107e8899845ad3d59bd9653f200f220920489ca2b5937696c3183604051611dca9190612b52565b60405180910390a3505050565b611de28484846118f3565b611dee84848484612182565b611e2d576040517f08c379a0000000000000000000000000000000000000000000000000000000008152600401611e2490613be4565b60405180910390fd5b50505050565b606060405180602001604052806000815250905090565b606060006001611e5984612309565b01905060008167ffffffffffffffff811115611e7857611e77612dda565b5b6040519080825280601f01601f191660200182016040528015611eaa5781602001600182028036833780820191505090505b509050600082602001820190505b600115611f0d578080600190039150507f3031323334353637383961626364656600000000000000000000000000000000600a86061a8153600a8581611f0157611f00613c04565b5b04945060008503611eb8575b819350505050919050565b60007f01ffc9a7000000000000000000000000000000000000000000000000000000007bffffffffffffffffffffffffffffffffffffffffffffffffffffffff1916827bffffffffffffffffffffffffffffffffffffffffffffffffffffffff1916149050919050565b60008073ffffffffffffffffffffffffffffffffffffffff16611fa483611c2e565b73ffffffffffffffffffffffffffffffffffffffff1614159050919050565b611fcf8484848461245c565b6001811115612013576040517f08c379a000000000000000000000000000000000000000000000000000000000815260040161200a90613ca5565b60405180910390fd5b6000829050600073ffffffffffffffffffffffffffffffffffffffff168573ffffffffffffffffffffffffffffffffffffffff160361205a5761205581612462565b612099565b8373ffffffffffffffffffffffffffffffffffffffff168573ffffffffffffffffffffffffffffffffffffffff16146120985761209785826124ab565b5b5b600073ffffffffffffffffffffffffffffffffffffffff168473ffffffffffffffffffffffffffffffffffffffff16036120db576120d681612618565b61211a565b8473ffffffffffffffffffffffffffffffffffffffff168473ffffffffffffffffffffffffffffffffffffffff16146121195761211884826126e9565b5b5b5050505050565b50505050565b6121318383612768565b61213e6000848484612182565b61217d576040517f08c379a000000000000000000000000000000000000000000000000000000000815260040161217490613be4565b60405180910390fd5b505050565b60006121a38473ffffffffffffffffffffffffffffffffffffffff16612985565b156122fc578373ffffffffffffffffffffffffffffffffffffffff1663150b7a026121cc61179d565b8786866040518563ffffffff1660e01b81526004016121ee9493929190613d1a565b6020604051808303816000875af192505050801561222a57506040513d601f19601f820116820180604052508101906122279190613d7b565b60015b6122ac573d806000811461225a576040519150601f19603f3d011682016040523d82523d6000602084013e61225f565b606091505b5060008151036122a4576040517f08c379a000000000000000000000000000000000000000000000000000000000815260040161229b90613be4565b60405180910390fd5b805181602001fd5b63150b7a0260e01b7bffffffffffffffffffffffffffffffffffffffffffffffffffffffff1916817bffffffffffffffffffffffffffffffffffffffffffffffffffffffff191614915050612301565b600190505b949350505050565b600080600090507a184f03e93ff9f4daa797ed6e38ed64bf6a1f0100000000000000008310612367577a184f03e93ff9f4daa797ed6e38ed64bf6a1f010000000000000000838161235d5761235c613c04565b5b0492506040810190505b6d04ee2d6d415b85acef810000000083106123a4576d04ee2d6d415b85acef8100000000838161239a57612399613c04565b5b0492506020810190505b662386f26fc1000083106123d357662386f26fc1000083816123c9576123c8613c04565b5b0492506010810190505b6305f5e10083106123fc576305f5e10083816123f2576123f1613c04565b5b0492506008810190505b612710831061242157612710838161241757612416613c04565b5b0492506004810190505b60648310612444576064838161243a57612439613c04565b5b0492506002810190505b600a8310612453576001810190505b80915050919050565b50505050565b6008805490506009600083815260200190815260200160002081905550600881908060018154018082558091505060019003906000526020600020016000909190919091505550565b600060016124b884610ee1565b6124c29190613dd7565b90506000600760008481526020019081526020016000205490508181146125a7576000600660008673ffffffffffffffffffffffffffffffffffffffff1673ffffffffffffffffffffffffffffffffffffffff168152602001908152602001600020600084815260200190815260200160002054905080600660008773ffffffffffffffffffffffffffffffffffffffff1673ffffffffffffffffffffffffffffffffffffffff168152602001908152602001600020600084815260200190815260200160002081905550816007600083815260200190815260200160002081905550505b6007600084815260200190815260200160002060009055600660008573ffffffffffffffffffffffffffffffffffffffff1673ffffffffffffffffffffffffffffffffffffffff16815260200190815260200160002060008381526020019081526020016000206000905550505050565b6000600160088054905061262c9190613dd7565b905060006009600084815260200190815260200160002054905060006008838154811061265c5761265b613855565b5b90600052602060002001549050806008838154811061267e5761267d613855565b5b9060005260206000200181905550816009600083815260200190815260200160002081905550600960008581526020019081526020016000206000905560088054806126cd576126cc613e0b565b5b6001900381819060005260206000200160009055905550505050565b60006126f483610ee1565b905081600660008573ffffffffffffffffffffffffffffffffffffffff1673ffffffffffffffffffffffffffffffffffffffff168152602001908152602001600020600083815260200190815260200160002081905550806007600084815260200190815260200160002081905550505050565b600073ffffffffffffffffffffffffffffffffffffffff168273ffffffffffffffffffffffffffffffffffffffff16036127d7576040517f08c379a00000000000000000000000000000000000000000000000000000000081526004016127ce90613e86565b60405180910390fd5b6127e081611f82565b15612820576040517f08c379a000000000000000000000000000000000000000000000000000000000815260040161281790613ef2565b60405180910390fd5b61282e600083836001611fc3565b61283781611f82565b15612877576040517f08c379a000000000000000000000000000000000000000000000000000000000815260040161286e90613ef2565b60405180910390fd5b6001600360008473ffffffffffffffffffffffffffffffffffffffff1673ffffffffffffffffffffffffffffffffffffffff16815260200190815260200160002060008282540192505081905550816002600083815260200190815260200160002060006101000a81548173ffffffffffffffffffffffffffffffffffffffff021916908373ffffffffffffffffffffffffffffffffffffffff160217905550808273ffffffffffffffffffffffffffffffffffffffff16600073ffffffffffffffffffffffffffffffffffffffff167fddf252ad1be2c89b69c2b068fc378daa952ba7f163c4a11628f55a4df523b3ef60405160405180910390a4612981600083836001612121565b5050565b6000808273ffffffffffffffffffffffffffffffffffffffff163b119050919050565b8280546129b49061354a565b90600052602060002090601f0160209004810192826129d65760008555612a1d565b82601f106129ef57805160ff1916838001178555612a1d565b82800160010185558215612a1d579182015b82811115612a1c578251825591602001919060010190612a01565b5b509050612a2a9190612a81565b5090565b604051806101400160405280606081526020016060815260200160608152602001606081526020016060815260200160608152602001600081526020016060815260200160008152602001606081525090565b5b80821115612a9a576000816000905550600101612a82565b5090565b6000604051905090565b600080fd5b600080fd5b60007fffffffff0000000000000000000000000000000000000000000000000000000082169050919050565b612ae781612ab2565b8114612af257600080fd5b50565b600081359050612b0481612ade565b92915050565b600060208284031215612b2057612b1f612aa8565b5b6000612b2e84828501612af5565b91505092915050565b60008115159050919050565b612b4c81612b37565b82525050565b6000602082019050612b676000830184612b43565b92915050565b600081519050919050565b600082825260208201905092915050565b60005b83811015612ba7578082015181840152602081019050612b8c565b83811115612bb6576000848401525b50505050565b6000601f19601f8301169050919050565b6000612bd882612b6d565b612be28185612b78565b9350612bf2818560208601612b89565b612bfb81612bbc565b840191505092915050565b60006020820190508181036000830152612c208184612bcd565b905092915050565b6000819050919050565b612c3b81612c28565b8114612c4657600080fd5b50565b600081359050612c5881612c32565b92915050565b600060208284031215612c7457612c73612aa8565b5b6000612c8284828501612c49565b91505092915050565b600073ffffffffffffffffffffffffffffffffffffffff82169050919050565b6000612cb682612c8b565b9050919050565b612cc681612cab565b82525050565b6000602082019050612ce16000830184612cbd565b92915050565b612cf081612cab565b8114612cfb57600080fd5b50565b600081359050612d0d81612ce7565b92915050565b60008060408385031215612d2a57612d29612aa8565b5b6000612d3885828601612cfe565b9250506020612d4985828601612c49565b9150509250929050565b612d5c81612c28565b82525050565b6000602082019050612d776000830184612d53565b92915050565b600080600060608486031215612d9657612d95612aa8565b5b6000612da486828701612cfe565b9350506020612db586828701612cfe565b9250506040612dc686828701612c49565b9150509250925092565b600080fd5b600080fd5b7f4e487b7100000000000000000000000000000000000000000000000000000000600052604160045260246000fd5b612e1282612bbc565b810181811067ffffffffffffffff82111715612e3157612e30612dda565b5b80604052505050565b6000612e44612a9e565b9050612e508282612e09565b919050565b600067ffffffffffffffff821115612e7057612e6f612dda565b5b612e7982612bbc565b9050602081019050919050565b82818337600083830152505050565b6000612ea8612ea384612e55565b612e3a565b905082815260208101848484011115612ec457612ec3612dd5565b5b612ecf848285612e86565b509392505050565b600082601f830112612eec57612eeb612dd0565b5b8135612efc848260208601612e95565b91505092915050565b6000806000806000806000806000806101408b8d031215612f2957612f28612aa8565b5b60008b013567ffffffffffffffff811115612f4757612f46612aad565b5b612f538d828e01612ed7565b9a505060208b013567ffffffffffffffff811115612f7457612f73612aad565b5b612f808d828e01612ed7565b99505060408b013567ffffffffffffffff811115612fa157612fa0612aad565b5b612fad8d828e01612ed7565b98505060608b013567ffffffffffffffff811115612fce57612fcd612aad565b5b612fda8d828e01612ed7565b97505060808b013567ffffffffffffffff811115612ffb57612ffa612aad565b5b6130078d828e01612ed7565b96505060a08b013567ffffffffffffffff81111561302857613027612aad565b5b6130348d828e01612ed7565b95505060c06130458d828e01612c49565b94505060e08b013567ffffffffffffffff81111561306657613065612aad565b5b6130728d828e01612ed7565b9350506101006130848d828e01612c49565b9250506101208b013567ffffffffffffffff8111156130a6576130a5612aad565b5b6130b28d828e01612ed7565b9150509295989b9194979a5092959850565b60006101408201905081810360008301526130df818d612bcd565b905081810360208301526130f3818c612bcd565b90508181036040830152613107818b612bcd565b9050818103606083015261311b818a612bcd565b9050818103608083015261312f8189612bcd565b905081810360a08301526131438188612bcd565b905061315260c0830187612d53565b81810360e08301526131648186612bcd565b9050613174610100830185612d53565b8181036101208301526131878184612bcd565b90509b9a5050505050505050505050565b6000602082840312156131ae576131ad612aa8565b5b60006131bc84828501612cfe565b91505092915050565b6131ce81612b37565b81146131d957600080fd5b50565b6000813590506131eb816131c5565b92915050565b6000806040838503121561320857613207612aa8565b5b600061321685828601612cfe565b9250506020613227858286016131dc565b9150509250929050565b600067ffffffffffffffff82111561324c5761324b612dda565b5b61325582612bbc565b9050602081019050919050565b600061327561327084613231565b612e3a565b90508281526020810184848401111561329157613290612dd5565b5b61329c848285612e86565b509392505050565b600082601f8301126132b9576132b8612dd0565b5b81356132c9848260208601613262565b91505092915050565b600080600080608085870312156132ec576132eb612aa8565b5b60006132fa87828801612cfe565b945050602061330b87828801612cfe565b935050604061331c87828801612c49565b925050606085013567ffffffffffffffff81111561333d5761333c612aad565b5b613349878288016132a4565b91505092959194509250565b600082825260208201905092915050565b600061337182612b6d565b61337b8185613355565b935061338b818560208601612b89565b61339481612bbc565b840191505092915050565b6133a881612c28565b82525050565b60006101408301600083015184820360008601526133cc8282613366565b915050602083015184820360208601526133e68282613366565b915050604083015184820360408601526134008282613366565b9150506060830151848203606086015261341a8282613366565b915050608083015184820360808601526134348282613366565b91505060a083015184820360a086015261344e8282613366565b91505060c083015161346360c086018261339f565b5060e083015184820360e086015261347b8282613366565b91505061010083015161349261010086018261339f565b506101208301518482036101208601526134ac8282613366565b9150508091505092915050565b600060208201905081810360008301526134d381846133ae565b905092915050565b600080604083850312156134f2576134f1612aa8565b5b600061350085828601612cfe565b925050602061351185828601612cfe565b9150509250929050565b7f4e487b7100000000000000000000000000000000000000000000000000000000600052602260045260246000fd5b6000600282049050600182168061356257607f821691505b6020821081036135755761357461351b565b5b50919050565b7f4552433732313a20617070726f76616c20746f2063757272656e74206f776e6560008201527f7200000000000000000000000000000000000000000000000000000000000000602082015250565b60006135d7602183612b78565b91506135e28261357b565b604082019050919050565b60006020820190508181036000830152613606816135ca565b9050919050565b7f4552433732313a20617070726f76652063616c6c6572206973206e6f7420746f60008201527f6b656e206f776e6572206f7220617070726f76656420666f7220616c6c000000602082015250565b6000613669603d83612b78565b91506136748261360d565b604082019050919050565b600060208201905081810360008301526136988161365c565b9050919050565b7f4552433732313a2063616c6c6572206973206e6f7420746f6b656e206f776e6560008201527f72206f7220617070726f76656400000000000000000000000000000000000000602082015250565b60006136fb602d83612b78565b91506137068261369f565b604082019050919050565b6000602082019050818103600083015261372a816136ee565b9050919050565b7f455243373231456e756d657261626c653a206f776e657220696e646578206f7560008201527f74206f6620626f756e6473000000000000000000000000000000000000000000602082015250565b600061378d602b83612b78565b915061379882613731565b604082019050919050565b600060208201905081810360008301526137bc81613780565b9050919050565b7f455243373231456e756d657261626c653a20676c6f62616c20696e646578206f60008201527f7574206f6620626f756e64730000000000000000000000000000000000000000602082015250565b600061381f602c83612b78565b915061382a826137c3565b604082019050919050565b6000602082019050818103600083015261384e81613812565b9050919050565b7f4e487b7100000000000000000000000000000000000000000000000000000000600052603260045260246000fd5b7f4552433732313a20696e76616c696420746f6b656e2049440000000000000000600082015250565b60006138ba601883612b78565b91506138c582613884565b602082019050919050565b600060208201905081810360008301526138e9816138ad565b9050919050565b7f4552433732313a2061646472657373207a65726f206973206e6f74206120766160008201527f6c6964206f776e65720000000000000000000000000000000000000000000000602082015250565b600061394c602983612b78565b9150613957826138f0565b604082019050919050565b6000602082019050818103600083015261397b8161393f565b9050919050565b600081905092915050565b600061399882612b6d565b6139a28185613982565b93506139b2818560208601612b89565b80840191505092915050565b60006139ca828561398d565b91506139d6828461398d565b91508190509392505050565b7f4552433732313a207472616e736665722066726f6d20696e636f72726563742060008201527f6f776e6572000000000000000000000000000000000000000000000000000000602082015250565b6000613a3e602583612b78565b9150613a49826139e2565b604082019050919050565b60006020820190508181036000830152613a6d81613a31565b9050919050565b7f4552433732313a207472616e7366657220746f20746865207a65726f2061646460008201527f7265737300000000000000000000000000000000000000000000000000000000602082015250565b6000613ad0602483612b78565b9150613adb82613a74565b604082019050919050565b60006020820190508181036000830152613aff81613ac3565b9050919050565b7f4552433732313a20617070726f766520746f2063616c6c657200000000000000600082015250565b6000613b3c601983612b78565b9150613b4782613b06565b602082019050919050565b60006020820190508181036000830152613b6b81613b2f565b9050919050565b7f4552433732313a207472616e7366657220746f206e6f6e20455243373231526560008201527f63656976657220696d706c656d656e7465720000000000000000000000000000602082015250565b6000613bce603283612b78565b9150613bd982613b72565b604082019050919050565b60006020820190508181036000830152613bfd81613bc1565b9050919050565b7f4e487b7100000000000000000000000000000000000000000000000000000000600052601260045260246000fd5b7f455243373231456e756d657261626c653a20636f6e736563757469766520747260008201527f616e7366657273206e6f7420737570706f727465640000000000000000000000602082015250565b6000613c8f603583612b78565b9150613c9a82613c33565b604082019050919050565b60006020820190508181036000830152613cbe81613c82565b9050919050565b600081519050919050565b600082825260208201905092915050565b6000613cec82613cc5565b613cf68185613cd0565b9350613d06818560208601612b89565b613d0f81612bbc565b840191505092915050565b6000608082019050613d2f6000830187612cbd565b613d3c6020830186612cbd565b613d496040830185612d53565b8181036060830152613d5b8184613ce1565b905095945050505050565b600081519050613d7581612ade565b92915050565b600060208284031215613d9157613d90612aa8565b5b6000613d9f84828501613d66565b91505092915050565b7f4e487b7100000000000000000000000000000000000000000000000000000000600052601160045260246000fd5b6000613de282612c28565b9150613ded83612c28565b925082821015613e0057613dff613da8565b5b828203905092915050565b7f4e487b7100000000000000000000000000000000000000000000000000000000600052603160045260246000fd5b7f4552433732313a206d696e7420746f20746865207a65726f2061646472657373600082015250565b6000613e70602083612b78565b9150613e7b82613e3a565b602082019050919050565b60006020820190508181036000830152613e9f81613e63565b9050919050565b7f4552433732313a20746f6b656e20616c7265616479206d696e74656400000000600082015250565b6000613edc601c83612b78565b9150613ee782613ea6565b602082019050919050565b60006020820190508181036000830152613f0b81613ecf565b905091905056fea264697066735822122028cba1960ed216975c5291da093adfdcfa535136b3aefe31ae21ab6843539bc764736f6c634300080d0033",
  "immutableReferences": {},
  "source": "pragma solidity ^0.8.0;\n\nimport \"@openzeppelin/contracts/token/ERC721/extensions/ERC721Enumerable.sol\";\nimport \"@openzeppelin/contracts/utils/Counters.sol\";\n\ncontract ACNFTGrade is ERC721Enumerable {\n    using Counters for Counters.Counter;\n    Counters.Counter private _tokenIdCounter;\n\n    struct Grade {\n        string schoolName;\n        string schoolCode;\n        string studentName;\n        string studentID;\n        string courseName;\n        string courseID;\n        uint256 courseStartYear;\n        string courseOtherInfo;\n        uint256 gradeValue;  // e.g., 90 for A+\n        string gradeLetter;  // e.g., \"A+\"\n    }\n\n    mapping(uint256 => Grade) public grades;\n\n    constructor() ERC721(\"Academic Certificate NFT\", \"ACNFT\") {}\n\n    function mintGrade(\n        string memory _schoolName,\n        string memory _schoolCode,\n        string memory _studentName,\n        string memory _studentID,\n        string memory _courseName,\n        string memory _courseID,\n        uint256 _courseStartYear,\n        string memory _courseOtherInfo,\n        uint256 _gradeValue,\n        string memory _gradeLetter\n    ) public returns (uint256) {\n        _tokenIdCounter.increment();\n        uint256 newTokenId = _tokenIdCounter.current();\n        _safeMint(msg.sender, newTokenId);\n\n        Grade memory newGrade = Grade({\n            schoolName: _schoolName,\n            schoolCode: _schoolCode,\n            studentName: _studentName,\n            studentID: _studentID,\n            courseName: _courseName,\n            courseID: _courseID,\n            courseStartYear: _courseStartYear,\n            courseOtherInfo: _courseOtherInfo,\n            gradeValue: _gradeValue,\n            gradeLetter: _gradeLetter\n        });\n\n        grades[newTokenId] = newGrade;\n\n        return newTokenId;\n    }\n\n    function getGrade(uint256 tokenId) public view returns (Grade memory) {\n        return grades[tokenId];\n    }\n}\n",
  "sourcePath": "/Users/ac_m1a/Library/CloudStorage/Dropbox/AUT_CS/comp842_cc/as01/src/ACNFT/contracts/ACNFTGrade.sol",
  "compiler": {
    "name": "solc",
    "version": "0.8.13+commit.abaa5c0e.Emscripten.clang"
  },
  "schemaVersion": "3.4.16",
  "updatedAt": "2023-09-10T07:10:21.146Z",
  "networkType": "ethereum",
  "devdoc": {
    "kind": "dev",
    "methods": {
      "approve(address,uint256)": {
        "details": "See {IERC721-approve}."
      },
      "balanceOf(address)": {
        "details": "See {IERC721-balanceOf}."
      },
      "getApproved(uint256)": {
        "details": "See {IERC721-getApproved}."
      },
      "isApprovedForAll(address,address)": {
        "details": "See {IERC721-isApprovedForAll}."
      },
      "name()": {
        "details": "See {IERC721Metadata-name}."
      },
      "ownerOf(uint256)": {
        "details": "See {IERC721-ownerOf}."
      },
      "safeTransferFrom(address,address,uint256)": {
        "details": "See {IERC721-safeTransferFrom}."
      },
      "safeTransferFrom(address,address,uint256,bytes)": {
        "details": "See {IERC721-safeTransferFrom}."
      },
      "setApprovalForAll(address,bool)": {
        "details": "See {IERC721-setApprovalForAll}."
      },
      "supportsInterface(bytes4)": {
        "details": "See {IERC165-supportsInterface}."
      },
      "symbol()": {
        "details": "See {IERC721Metadata-symbol}."
      },
      "tokenByIndex(uint256)": {
        "details": "See {IERC721Enumerable-tokenByIndex}."
      },
      "tokenOfOwnerByIndex(address,uint256)": {
        "details": "See {IERC721Enumerable-tokenOfOwnerByIndex}."
      },
      "tokenURI(uint256)": {
        "details": "See {IERC721Metadata-tokenURI}."
      },
      "totalSupply()": {
        "details": "See {IERC721Enumerable-totalSupply}."
      },
      "transferFrom(address,address,uint256)": {
        "details": "See {IERC721-transferFrom}."
      }
    },
    "version": 1
  },
  "userdoc": {
    "kind": "user",
    "methods": {},
    "version": 1
  }
}